{
  "contractName": "Escrow",
  "abi": [
    {
      "inputs": [],
      "payable": false,
      "stateMutability": "nonpayable",
      "type": "constructor"
    },
    {
      "constant": true,
      "inputs": [
        {
          "internalType": "address",
          "name": "",
          "type": "address"
        }
      ],
      "name": "escrowBalances",
      "outputs": [
        {
          "internalType": "int256",
          "name": "",
          "type": "int256"
        }
      ],
      "payable": false,
      "stateMutability": "view",
      "type": "function"
    },
    {
      "constant": true,
      "inputs": [],
      "name": "escrowTotal",
      "outputs": [
        {
          "internalType": "int256",
          "name": "",
          "type": "int256"
        }
      ],
      "payable": false,
      "stateMutability": "view",
      "type": "function"
    },
    {
      "constant": false,
      "inputs": [
        {
          "internalType": "address",
          "name": "buyer",
          "type": "address"
        },
        {
          "internalType": "int256",
          "name": "amount",
          "type": "int256"
        }
      ],
      "name": "credit",
      "outputs": [],
      "payable": true,
      "stateMutability": "payable",
      "type": "function"
    },
    {
      "constant": true,
      "inputs": [
        {
          "internalType": "address",
          "name": "buyer",
          "type": "address"
        }
      ],
      "name": "getBalance",
      "outputs": [
        {
          "internalType": "int256",
          "name": "amount",
          "type": "int256"
        }
      ],
      "payable": false,
      "stateMutability": "view",
      "type": "function"
    },
    {
      "constant": false,
      "inputs": [
        {
          "internalType": "address",
          "name": "seller",
          "type": "address"
        },
        {
          "internalType": "bytes32",
          "name": "item",
          "type": "bytes32"
        },
        {
          "internalType": "int256",
          "name": "amount",
          "type": "int256"
        }
      ],
      "name": "offer",
      "outputs": [],
      "payable": false,
      "stateMutability": "nonpayable",
      "type": "function"
    },
    {
      "constant": true,
      "inputs": [
        {
          "internalType": "bytes32",
          "name": "item",
          "type": "bytes32"
        }
      ],
      "name": "getOfferPrice",
      "outputs": [
        {
          "internalType": "int256",
          "name": "amount",
          "type": "int256"
        }
      ],
      "payable": false,
      "stateMutability": "view",
      "type": "function"
    },
    {
      "constant": false,
      "inputs": [
        {
          "internalType": "address",
          "name": "buyer",
          "type": "address"
        },
        {
          "internalType": "bytes32",
          "name": "item",
          "type": "bytes32"
        }
      ],
      "name": "order",
      "outputs": [],
      "payable": false,
      "stateMutability": "nonpayable",
      "type": "function"
    },
    {
      "constant": false,
      "inputs": [
        {
          "internalType": "address",
          "name": "buyer",
          "type": "address"
        },
        {
          "internalType": "int256",
          "name": "amount",
          "type": "int256"
        }
      ],
      "name": "deposit",
      "outputs": [],
      "payable": false,
      "stateMutability": "nonpayable",
      "type": "function"
    },
    {
      "constant": false,
      "inputs": [
        {
          "internalType": "address",
          "name": "buyer",
          "type": "address"
        },
        {
          "internalType": "enum Escrow.Status",
          "name": "status",
          "type": "uint8"
        }
      ],
      "name": "processOrder",
      "outputs": [],
      "payable": false,
      "stateMutability": "nonpayable",
      "type": "function"
    },
    {
      "constant": false,
      "inputs": [
        {
          "internalType": "address",
          "name": "buyer",
          "type": "address"
        },
        {
          "internalType": "bytes32",
          "name": "item",
          "type": "bytes32"
        }
      ],
      "name": "complete",
      "outputs": [],
      "payable": false,
      "stateMutability": "nonpayable",
      "type": "function"
    },
    {
      "constant": false,
      "inputs": [
        {
          "internalType": "address",
          "name": "buyer",
          "type": "address"
        },
        {
          "internalType": "bytes32",
          "name": "item",
          "type": "bytes32"
        }
      ],
      "name": "complain",
      "outputs": [],
      "payable": false,
      "stateMutability": "nonpayable",
      "type": "function"
    },
    {
      "constant": false,
      "inputs": [
        {
          "internalType": "address",
          "name": "party",
          "type": "address"
        },
        {
          "internalType": "int256",
          "name": "amount",
          "type": "int256"
        },
        {
          "internalType": "enum Escrow.Action",
          "name": "action",
          "type": "uint8"
        }
      ],
      "name": "setEscrowBalance",
      "outputs": [],
      "payable": false,
      "stateMutability": "nonpayable",
      "type": "function"
    },
    {
      "constant": true,
      "inputs": [],
      "name": "getEscrowBalanceTotal",
      "outputs": [
        {
          "internalType": "int256",
          "name": "amount",
          "type": "int256"
        }
      ],
      "payable": false,
      "stateMutability": "view",
      "type": "function"
    }
  ],
  "bytecode": "0x608060405234801561001057600080fd5b506116e8806100206000396000f3fe6080604052600436106100c25760003560e01c80639672ba571161007f578063bcebb7f111610059578063bcebb7f11461039a578063ef3b52f714610402578063f0d0d14914610451578063f8b2cb4f146104b6576100c2565b80639672ba571461027f5780639b3cdf5a146102e4578063b0f8e3781461033f576100c2565b80631a8dea36146100c75780632a43eb07146101225780633546bf2814610180578063402fd63f146101ab5780635b3d1839146101f95780635faab07e14610254575b600080fd5b3480156100d357600080fd5b50610120600480360360408110156100ea57600080fd5b81019080803573ffffffffffffffffffffffffffffffffffffffff1690602001909291908035906020019092919050505061051b565b005b34801561012e57600080fd5b5061017e6004803603604081101561014557600080fd5b81019080803573ffffffffffffffffffffffffffffffffffffffff169060200190929190803560ff169060200190929190505050610635565b005b34801561018c57600080fd5b5061019561081c565b6040518082815260200191505060405180910390f35b6101f7600480360360408110156101c157600080fd5b81019080803573ffffffffffffffffffffffffffffffffffffffff16906020019092919080359060200190929190505050610822565b005b34801561020557600080fd5b506102526004803603604081101561021c57600080fd5b81019080803573ffffffffffffffffffffffffffffffffffffffff16906020019092919080359060200190929190505050610873565b005b34801561026057600080fd5b50610269610c21565b6040518082815260200191505060405180910390f35b34801561028b57600080fd5b506102ce600480360360208110156102a257600080fd5b81019080803573ffffffffffffffffffffffffffffffffffffffff169060200190929190505050610c2a565b6040518082815260200191505060405180910390f35b3480156102f057600080fd5b5061033d6004803603604081101561030757600080fd5b81019080803573ffffffffffffffffffffffffffffffffffffffff16906020019092919080359060200190929190505050610c42565b005b34801561034b57600080fd5b506103986004803603604081101561036257600080fd5b81019080803573ffffffffffffffffffffffffffffffffffffffff16906020019092919080359060200190929190505050611004565b005b3480156103a657600080fd5b50610400600480360360608110156103bd57600080fd5b81019080803573ffffffffffffffffffffffffffffffffffffffff16906020019092919080359060200190929190803560ff169060200190929190505050611316565b005b34801561040e57600080fd5b5061043b6004803603602081101561042557600080fd5b81019080803590602001909291905050506114c9565b6040518082815260200191505060405180910390f35b34801561045d57600080fd5b506104b46004803603606081101561047457600080fd5b81019080803573ffffffffffffffffffffffffffffffffffffffff16906020019092919080359060200190929190803590602001909291905050506114e9565b005b3480156104c257600080fd5b50610505600480360360208110156104d957600080fd5b81019080803573ffffffffffffffffffffffffffffffffffffffff16906020019092919050505061159c565b6040518082815260200191505060405180910390f35b6000600260008473ffffffffffffffffffffffffffffffffffffffff1673ffffffffffffffffffffffffffffffffffffffff1681526020019081526020016000205413801561057257508061056f8361159c565b12155b156105e05780600260008473ffffffffffffffffffffffffffffffffffffffff1673ffffffffffffffffffffffffffffffffffffffff168152602001908152602001600020600082825403925050819055506105d082826001611316565b6105db826001610635565b610631565b6040517f08c379a00000000000000000000000000000000000000000000000000000000081526004018080602001828103825260228152602001806116926022913960400191505060405180910390fd5b5050565b6060600460008473ffffffffffffffffffffffffffffffffffffffff1673ffffffffffffffffffffffffffffffffffffffff168152602001908152602001600020805480602002602001604051908101604052809291908181526020016000905b82821015610773578382906000526020600020906004020160405180604001604052908160008201604051806060016040529081600082015481526020016001820160009054906101000a900473ffffffffffffffffffffffffffffffffffffffff1673ffffffffffffffffffffffffffffffffffffffff1673ffffffffffffffffffffffffffffffffffffffff16815260200160028201548152505081526020016003820160009054906101000a900460ff16600481111561075557fe5b600481111561076057fe5b8152505081526020019060010190610696565b50505050905060008090505b8151811015610816576001600481111561079557fe5b8360048111156107a157fe5b1415610809576107b08461159c565b8282815181106107bc57fe5b60200260200101516000015160400151136108085760018282815181106107df57fe5b60200260200101516020019060048111156107f657fe5b9081600481111561080357fe5b815250505b5b808060010191505061077f565b50505050565b60005481565b80600260008473ffffffffffffffffffffffffffffffffffffffff1673ffffffffffffffffffffffffffffffffffffffff168152602001908152602001600020600082825401925050819055505050565b6001600082815260200190815260200160002060020154600360008473ffffffffffffffffffffffffffffffffffffffff1673ffffffffffffffffffffffffffffffffffffffff1681526020019081526020016000205412610a7857600460008373ffffffffffffffffffffffffffffffffffffffff1673ffffffffffffffffffffffffffffffffffffffff168152602001908152602001600020604051806040016040528060016000858152602001908152602001600020604051806060016040529081600082015481526020016001820160009054906101000a900473ffffffffffffffffffffffffffffffffffffffff1673ffffffffffffffffffffffffffffffffffffffff1673ffffffffffffffffffffffffffffffffffffffff1681526020016002820154815250508152602001600160048111156109b357fe5b815250908060018154018082558091505090600182039060005260206000209060040201600090919290919091506000820151816000016000820151816000015560208201518160010160006101000a81548173ffffffffffffffffffffffffffffffffffffffff021916908373ffffffffffffffffffffffffffffffffffffffff16021790555060408201518160020155505060208201518160030160006101000a81548160ff02191690836004811115610a6b57fe5b0217905550505050610c1d565b600460008373ffffffffffffffffffffffffffffffffffffffff1673ffffffffffffffffffffffffffffffffffffffff168152602001908152602001600020604051806040016040528060016000858152602001908152602001600020604051806060016040529081600082015481526020016001820160009054906101000a900473ffffffffffffffffffffffffffffffffffffffff1673ffffffffffffffffffffffffffffffffffffffff1673ffffffffffffffffffffffffffffffffffffffff168152602001600282015481525050815260200160006004811115610b5c57fe5b815250908060018154018082558091505090600182039060005260206000209060040201600090919290919091506000820151816000016000820151816000015560208201518160010160006101000a81548173ffffffffffffffffffffffffffffffffffffffff021916908373ffffffffffffffffffffffffffffffffffffffff16021790555060408201518160020155505060208201518160030160006101000a81548160ff02191690836004811115610c1457fe5b02179055505050505b5050565b60008054905090565b60036020528060005260406000206000915090505481565b6060600460008473ffffffffffffffffffffffffffffffffffffffff1673ffffffffffffffffffffffffffffffffffffffff168152602001908152602001600020805480602002602001604051908101604052809291908181526020016000905b82821015610d80578382906000526020600020906004020160405180604001604052908160008201604051806060016040529081600082015481526020016001820160009054906101000a900473ffffffffffffffffffffffffffffffffffffffff1673ffffffffffffffffffffffffffffffffffffffff1673ffffffffffffffffffffffffffffffffffffffff16815260200160028201548152505081526020016003820160009054906101000a900460ff166004811115610d6257fe5b6004811115610d6d57fe5b8152505081526020019060010190610ca3565b50505050905060008090505b8151811015610ffe5782828281518110610da257fe5b602002602001015160000151600001511415610ff15760006004811115610dc557fe5b828281518110610dd157fe5b6020026020010151602001516004811115610de857fe5b1415610e3f576040517f08c379a00000000000000000000000000000000000000000000000000000000081526004018080602001828103825260478152602001806116206047913960600191505060405180910390fd5b60036004811115610e4c57fe5b828281518110610e5857fe5b6020026020010151602001516004811115610e6f57fe5b1415610ee3576040517f08c379a00000000000000000000000000000000000000000000000000000000081526004018080602001828103825260178152602001807f4f7264657220436f6d706c6574656420416c726561647900000000000000000081525060200191505060405180910390fd5b6004828281518110610ef157fe5b6020026020010151602001906004811115610f0857fe5b90816004811115610f1557fe5b81525050600360008573ffffffffffffffffffffffffffffffffffffffff1673ffffffffffffffffffffffffffffffffffffffff16815260200190815260200160002054600260008673ffffffffffffffffffffffffffffffffffffffff1673ffffffffffffffffffffffffffffffffffffffff16815260200190815260200160002060008282540192505081905550610ff084600360008773ffffffffffffffffffffffffffffffffffffffff1673ffffffffffffffffffffffffffffffffffffffff168152602001908152602001600020546000611316565b5b8080600101915050610d8c565b50505050565b6060600460008473ffffffffffffffffffffffffffffffffffffffff1673ffffffffffffffffffffffffffffffffffffffff168152602001908152602001600020805480602002602001604051908101604052809291908181526020016000905b82821015611142578382906000526020600020906004020160405180604001604052908160008201604051806060016040529081600082015481526020016001820160009054906101000a900473ffffffffffffffffffffffffffffffffffffffff1673ffffffffffffffffffffffffffffffffffffffff1673ffffffffffffffffffffffffffffffffffffffff16815260200160028201548152505081526020016003820160009054906101000a900460ff16600481111561112457fe5b600481111561112f57fe5b8152505081526020019060010190611065565b50505050905060008090505b8151811015611310578282828151811061116457fe5b602002602001015160000151600001511415611303576003600481111561118757fe5b82828151811061119357fe5b60200260200101516020015160048111156111aa57fe5b146112945760038282815181106111bd57fe5b60200260200101516020019060048111156111d457fe5b908160048111156111e157fe5b815250508181815181106111f157fe5b602002602001015160000151604001516002600084848151811061121157fe5b6020026020010151600001516020015173ffffffffffffffffffffffffffffffffffffffff1673ffffffffffffffffffffffffffffffffffffffff1681526020019081526020016000206000828254019250508190555061128f8483838151811061127857fe5b602002602001015160000151604001516000611316565b611302565b6040517f08c379a00000000000000000000000000000000000000000000000000000000081526004018080602001828103825260178152602001807f4f7264657220436f6d706c6574656420416c726561647900000000000000000081525060200191505060405180910390fd5b5b808060010191505061114e565b50505050565b6000600181111561132357fe5b81600181111561132f57fe5b141561144857600082600054031215801561138c5750600082600360008673ffffffffffffffffffffffffffffffffffffffff1673ffffffffffffffffffffffffffffffffffffffff168152602001908152602001600020540312155b156113f25781600360008573ffffffffffffffffffffffffffffffffffffffff1673ffffffffffffffffffffffffffffffffffffffff16815260200190815260200160002060008282540392505081905550816000808282540392505081905550611443565b6040517f08c379a000000000000000000000000000000000000000000000000000000000815260040180806020018281038252602b815260200180611667602b913960400191505060405180910390fd5b6114c4565b60018081111561145457fe5b81600181111561146057fe5b14156114c35781600360008573ffffffffffffffffffffffffffffffffffffffff1673ffffffffffffffffffffffffffffffffffffffff168152602001908152602001600020600082825401925050819055508160008082825401925050819055505b5b505050565b600060016000838152602001908152602001600020600201549050919050565b6114f16115e5565b60405180606001604052808481526020018573ffffffffffffffffffffffffffffffffffffffff16815260200183815250905080600160008581526020019081526020016000206000820151816000015560208201518160010160006101000a81548173ffffffffffffffffffffffffffffffffffffffff021916908373ffffffffffffffffffffffffffffffffffffffff1602179055506040820151816002015590505050505050565b6000600260008373ffffffffffffffffffffffffffffffffffffffff1673ffffffffffffffffffffffffffffffffffffffff168152602001908152602001600020549050919050565b604051806060016040528060008019168152602001600073ffffffffffffffffffffffffffffffffffffffff16815260200160008152509056fe5061796d656e74206e6f742079657420646f6e6520666f7220746865206974656d206f7220496e73756666696369656e7420616d6f756e7420746f20706c616365204f72646572496e73756666696369656e7420416d6f756e7420696e2074686520657363726f7720746f20646564756374496e73756666696369656e742042616c616e636520666f7220746865204275796572a265627a7a72315820ef988baf3b6250b4a8232d32ed9ef14ac720474cd12a38a061ba23abcaec4f3d64736f6c63430005100032",
  "source": "pragma solidity >=0.4.25 <0.7.5;\r\n\r\ncontract Escrow {\r\n    struct Item {\r\n        bytes32 name;\r\n        address seller;\r\n        int256 rate;\r\n    }\r\n    struct Order {\r\n        Item item;\r\n        Status status;\r\n    }\r\n\r\n    int256 public escrowTotal;\r\n    mapping(bytes32 => Item) inventory;\r\n    mapping(address => int256) balances;\r\n    mapping(address => int256) public escrowBalances;\r\n    mapping(address => Order[]) orders;\r\n    enum Status {\r\n        PAYMENT_PENDING,\r\n        ORDER_PROCESSING,\r\n        PAYMENT_PAID,\r\n        ORDER_COMPLETE,\r\n        ORDER_CANCELLED\r\n    }\r\n    enum Action {DEDUCT, CREDIT}\r\n\r\n    constructor() public {}\r\n\r\n    function credit(address buyer, int256 amount) public payable {\r\n        balances[buyer] += amount;\r\n    }\r\n\r\n    function getBalance(address buyer) public view returns (int256 amount) {\r\n        return balances[buyer];\r\n    }\r\n\r\n    function offer(\r\n        address seller,\r\n        bytes32 item,\r\n        int256 amount\r\n    ) public {\r\n        Item memory stock = Item(item, seller, amount);\r\n        inventory[item] = stock;\r\n    }\r\n\r\n    function getOfferPrice(bytes32 item) public view returns (int256 amount) {\r\n        return inventory[item].rate;\r\n    }\r\n\r\n    function order(address buyer, bytes32 item) public {\r\n        if (escrowBalances[buyer] >= inventory[item].rate) {\r\n            orders[buyer].push(Order(inventory[item], Status.ORDER_PROCESSING));\r\n            //setEscrowBalance(buyer,inventory[item].rate,Action.DEDUCT);\r\n            //escrowBalances[buyer] -= inventory[item].rate;\r\n        } else {\r\n            orders[buyer].push(Order(inventory[item], Status.PAYMENT_PENDING));\r\n        }\r\n    }\r\n\r\n    function deposit(address buyer, int256 amount) public {\r\n        if (balances[buyer] > 0 && getBalance(buyer) >= amount) {\r\n            balances[buyer] -= amount;\r\n            setEscrowBalance(buyer, amount, Action.CREDIT);\r\n            processOrder(buyer, Status.ORDER_PROCESSING);\r\n        } else {\r\n            revert(\"Insufficient Balance for the Buyer\");\r\n        }\r\n    }\r\n\r\n    function processOrder(address buyer, Status status) public {\r\n        Order[] memory orderList = orders[buyer];\r\n        for (uint256 i = 0; i < orderList.length; i++) {\r\n            if (status == Status.ORDER_PROCESSING) {\r\n                if (orderList[i].item.rate <= getBalance(buyer)) {\r\n                    orderList[i].status = Status.ORDER_PROCESSING;\r\n                }\r\n            }\r\n        }\r\n    }\r\n\r\n    function complete(address buyer, bytes32 item) public {\r\n        // change order status to Complete\r\n        Order[] memory orderList = orders[buyer];\r\n        for (uint256 i = 0; i < orderList.length; i++) {\r\n            if (orderList[i].item.name == item) {\r\n                if (orderList[i].status != Status.ORDER_COMPLETE) {\r\n                    orderList[i].status = Status.ORDER_COMPLETE;\r\n                    balances[orderList[i].item.seller] += orderList[i]\r\n                        .item\r\n                        .rate;\r\n                    setEscrowBalance(\r\n                        buyer,\r\n                        orderList[i].item.rate,\r\n                        Action.DEDUCT\r\n                    );\r\n                } else {\r\n                    revert(\"Order Completed Already\");\r\n                }\r\n            }\r\n        }\r\n    }\r\n\r\n    function complain(address buyer, bytes32 item) public {\r\n        Order[] memory orderList = orders[buyer];\r\n        for (uint256 i = 0; i < orderList.length; i++) {\r\n            if (orderList[i].item.name == item) {\r\n                if (orderList[i].status == Status.PAYMENT_PENDING) {\r\n                    revert(\r\n                        \"Payment not yet done for the item or Insufficient amount to place Order\"\r\n                    );\r\n                } else if (orderList[i].status == Status.ORDER_COMPLETE) {\r\n                    revert(\"Order Completed Already\");\r\n                } else {\r\n                    orderList[i].status = Status.ORDER_CANCELLED;\r\n                    balances[buyer] += escrowBalances[buyer];\r\n                    setEscrowBalance(\r\n                        buyer,\r\n                        escrowBalances[buyer],\r\n                        Action.DEDUCT\r\n                    );\r\n                }\r\n            }\r\n        }\r\n    }\r\n\r\n    function setEscrowBalance(\r\n        address party,\r\n        int256 amount,\r\n        Action action\r\n    ) public {\r\n        if (action == Action.DEDUCT) {\r\n            if (\r\n                escrowTotal - amount >= 0 && escrowBalances[party] - amount >= 0\r\n            ) {\r\n                escrowBalances[party] -= amount;\r\n                escrowTotal -= amount;\r\n            } else {\r\n                revert(\"Insufficient Amount in the escrow to deduct\");\r\n            }\r\n        } else if (action == Action.CREDIT) {\r\n            escrowBalances[party] += amount;\r\n            escrowTotal += amount;\r\n        }\r\n    }\r\n\r\n    function getEscrowBalanceTotal() public view returns (int256 amount) {\r\n        return escrowTotal;\r\n    }\r\n}\r\n",
  "sourcePath": "D:/escrow/contracts/Escrow.sol",
  "compiler": {
    "name": "solc",
    "version": "0.5.16+commit.9c3226ce.Emscripten.clang"
  },
  "schemaVersion": "3.3.3",
  "updatedAt": "2021-01-08T15:01:56.508Z",
  "networkType": "ethereum",
  "devdoc": {
    "methods": {}
  },
  "userdoc": {
    "methods": {}
  }
}