{
  "contractName": "Escrow",
  "abi": [
    {
      "inputs": [],
      "payable": false,
      "stateMutability": "nonpayable",
      "type": "constructor"
    },
    {
      "constant": true,
      "inputs": [
        {
          "internalType": "address",
          "name": "",
          "type": "address"
        }
      ],
      "name": "escrowBalances",
      "outputs": [
        {
          "internalType": "int256",
          "name": "",
          "type": "int256"
        }
      ],
      "payable": false,
      "stateMutability": "view",
      "type": "function"
    },
    {
      "constant": false,
      "inputs": [
        {
          "internalType": "address",
          "name": "buyer",
          "type": "address"
        }
      ],
      "name": "addBuyer",
      "outputs": [],
      "payable": false,
      "stateMutability": "nonpayable",
      "type": "function"
    },
    {
      "constant": false,
      "inputs": [
        {
          "internalType": "address",
          "name": "seller",
          "type": "address"
        }
      ],
      "name": "addSeller",
      "outputs": [],
      "payable": false,
      "stateMutability": "nonpayable",
      "type": "function"
    },
    {
      "constant": false,
      "inputs": [
        {
          "internalType": "address",
          "name": "buyer",
          "type": "address"
        },
        {
          "internalType": "int256",
          "name": "amount",
          "type": "int256"
        }
      ],
      "name": "credit",
      "outputs": [],
      "payable": false,
      "stateMutability": "nonpayable",
      "type": "function"
    },
    {
      "constant": true,
      "inputs": [
        {
          "internalType": "address",
          "name": "buyer",
          "type": "address"
        }
      ],
      "name": "getBalance",
      "outputs": [
        {
          "internalType": "int256",
          "name": "amount",
          "type": "int256"
        }
      ],
      "payable": false,
      "stateMutability": "view",
      "type": "function"
    },
    {
      "constant": false,
      "inputs": [
        {
          "internalType": "address",
          "name": "seller",
          "type": "address"
        },
        {
          "internalType": "bytes32",
          "name": "item",
          "type": "bytes32"
        },
        {
          "internalType": "int256",
          "name": "amount",
          "type": "int256"
        }
      ],
      "name": "offer",
      "outputs": [],
      "payable": false,
      "stateMutability": "nonpayable",
      "type": "function"
    },
    {
      "constant": false,
      "inputs": [
        {
          "internalType": "address",
          "name": "buyer",
          "type": "address"
        },
        {
          "internalType": "bytes32",
          "name": "item",
          "type": "bytes32"
        }
      ],
      "name": "order",
      "outputs": [],
      "payable": false,
      "stateMutability": "nonpayable",
      "type": "function"
    },
    {
      "constant": false,
      "inputs": [
        {
          "internalType": "address",
          "name": "buyer",
          "type": "address"
        },
        {
          "internalType": "int256",
          "name": "amount",
          "type": "int256"
        }
      ],
      "name": "deposit",
      "outputs": [],
      "payable": false,
      "stateMutability": "nonpayable",
      "type": "function"
    },
    {
      "constant": false,
      "inputs": [
        {
          "internalType": "address",
          "name": "buyer",
          "type": "address"
        },
        {
          "internalType": "bytes32",
          "name": "item",
          "type": "bytes32"
        }
      ],
      "name": "complete",
      "outputs": [],
      "payable": false,
      "stateMutability": "nonpayable",
      "type": "function"
    },
    {
      "constant": false,
      "inputs": [
        {
          "internalType": "address",
          "name": "buyer",
          "type": "address"
        },
        {
          "internalType": "bytes32",
          "name": "item",
          "type": "bytes32"
        }
      ],
      "name": "complain",
      "outputs": [],
      "payable": false,
      "stateMutability": "nonpayable",
      "type": "function"
    },
    {
      "constant": false,
      "inputs": [],
      "name": "getEscrowBalanceTotal",
      "outputs": [
        {
          "internalType": "int256",
          "name": "amount",
          "type": "int256"
        }
      ],
      "payable": false,
      "stateMutability": "nonpayable",
      "type": "function"
    }
  ],
  "bytecode": "0x608060405234801561001057600080fd5b5033600760006101000a81548173ffffffffffffffffffffffffffffffffffffffff021916908373ffffffffffffffffffffffffffffffffffffffff160217905550611e79806100616000396000f3fe608060405234801561001057600080fd5b50600436106100a95760003560e01c80639b3cdf5a116100715780639b3cdf5a1461020e578063b0f8e3781461025c578063bbf89803146102aa578063d93fabfa146102ee578063f0d0d14914610332578063f8b2cb4f1461038a576100a9565b80631a8dea36146100ae578063402fd63f146100fc5780635b3d18391461014a5780635faab07e146101985780639672ba57146101b6575b600080fd5b6100fa600480360360408110156100c457600080fd5b81019080803573ffffffffffffffffffffffffffffffffffffffff169060200190929190803590602001909291905050506103e2565b005b6101486004803603604081101561011257600080fd5b81019080803573ffffffffffffffffffffffffffffffffffffffff1690602001909291908035906020019092919050505061061a565b005b6101966004803603604081101561016057600080fd5b81019080803573ffffffffffffffffffffffffffffffffffffffff16906020019092919080359060200190929190505050610789565b005b6101a0610c55565b6040518082815260200191505060405180910390f35b6101f8600480360360208110156101cc57600080fd5b81019080803573ffffffffffffffffffffffffffffffffffffffff169060200190929190505050610c5e565b6040518082815260200191505060405180910390f35b61025a6004803603604081101561022457600080fd5b81019080803573ffffffffffffffffffffffffffffffffffffffff16906020019092919080359060200190929190505050610c76565b005b6102a86004803603604081101561027257600080fd5b81019080803573ffffffffffffffffffffffffffffffffffffffff16906020019092919080359060200190929190505050611156565b005b6102ec600480360360208110156102c057600080fd5b81019080803573ffffffffffffffffffffffffffffffffffffffff169060200190929190505050611586565b005b6103306004803603602081101561030457600080fd5b81019080803573ffffffffffffffffffffffffffffffffffffffff1690602001909291905050506116a4565b005b6103886004803603606081101561034857600080fd5b81019080803573ffffffffffffffffffffffffffffffffffffffff16906020019092919080359060200190929190803590602001909291905050506117c2565b005b6103cc600480360360208110156103a057600080fd5b81019080803573ffffffffffffffffffffffffffffffffffffffff169060200190929190505050611993565b6040518082815260200191505060405180910390f35b600760009054906101000a900473ffffffffffffffffffffffffffffffffffffffff1673ffffffffffffffffffffffffffffffffffffffff163373ffffffffffffffffffffffffffffffffffffffff16148061048e575060011515600560003373ffffffffffffffffffffffffffffffffffffffff1673ffffffffffffffffffffffffffffffffffffffff16815260200190815260200160002060009054906101000a900460ff161515145b610500576040517f08c379a000000000000000000000000000000000000000000000000000000000815260040180806020018281038252601f8152602001807f4f6e6c792062757965722063616e2063616c6c2074686973206d6574686f640081525060200191505060405180910390fd5b6000600260008473ffffffffffffffffffffffffffffffffffffffff1673ffffffffffffffffffffffffffffffffffffffff1681526020019081526020016000205413801561055757508061055483611993565b12155b156105c55780600260008473ffffffffffffffffffffffffffffffffffffffff1673ffffffffffffffffffffffffffffffffffffffff168152602001908152602001600020600082825403925050819055506105b5828260016119dc565b6105c0826001611b8f565b610616565b6040517f08c379a0000000000000000000000000000000000000000000000000000000008152600401808060200182810382526022815260200180611e236022913960400191505060405180910390fd5b5050565b600760009054906101000a900473ffffffffffffffffffffffffffffffffffffffff1673ffffffffffffffffffffffffffffffffffffffff163373ffffffffffffffffffffffffffffffffffffffff1614806106c6575060011515600560003373ffffffffffffffffffffffffffffffffffffffff1673ffffffffffffffffffffffffffffffffffffffff16815260200190815260200160002060009054906101000a900460ff161515145b610738576040517f08c379a000000000000000000000000000000000000000000000000000000000815260040180806020018281038252601f8152602001807f4f6e6c792062757965722063616e2063616c6c2074686973206d6574686f640081525060200191505060405180910390fd5b80600260008473ffffffffffffffffffffffffffffffffffffffff1673ffffffffffffffffffffffffffffffffffffffff168152602001908152602001600020600082825401925050819055505050565b600760009054906101000a900473ffffffffffffffffffffffffffffffffffffffff1673ffffffffffffffffffffffffffffffffffffffff163373ffffffffffffffffffffffffffffffffffffffff161480610835575060011515600560003373ffffffffffffffffffffffffffffffffffffffff1673ffffffffffffffffffffffffffffffffffffffff16815260200190815260200160002060009054906101000a900460ff161515145b6108a7576040517f08c379a000000000000000000000000000000000000000000000000000000000815260040180806020018281038252601f8152602001807f4f6e6c792062757965722063616e2063616c6c2074686973206d6574686f640081525060200191505060405180910390fd5b6001600082815260200190815260200160002060020154600360008473ffffffffffffffffffffffffffffffffffffffff1673ffffffffffffffffffffffffffffffffffffffff1681526020019081526020016000205412610aac57600460008373ffffffffffffffffffffffffffffffffffffffff1673ffffffffffffffffffffffffffffffffffffffff168152602001908152602001600020604051806040016040528060016000858152602001908152602001600020604051806060016040529081600082015481526020016001820160009054906101000a900473ffffffffffffffffffffffffffffffffffffffff1673ffffffffffffffffffffffffffffffffffffffff1673ffffffffffffffffffffffffffffffffffffffff1681526020016002820154815250508152602001600160048111156109e757fe5b815250908060018154018082558091505090600182039060005260206000209060040201600090919290919091506000820151816000016000820151816000015560208201518160010160006101000a81548173ffffffffffffffffffffffffffffffffffffffff021916908373ffffffffffffffffffffffffffffffffffffffff16021790555060408201518160020155505060208201518160030160006101000a81548160ff02191690836004811115610a9f57fe5b0217905550505050610c51565b600460008373ffffffffffffffffffffffffffffffffffffffff1673ffffffffffffffffffffffffffffffffffffffff168152602001908152602001600020604051806040016040528060016000858152602001908152602001600020604051806060016040529081600082015481526020016001820160009054906101000a900473ffffffffffffffffffffffffffffffffffffffff1673ffffffffffffffffffffffffffffffffffffffff1673ffffffffffffffffffffffffffffffffffffffff168152602001600282015481525050815260200160006004811115610b9057fe5b815250908060018154018082558091505090600182039060005260206000209060040201600090919290919091506000820151816000016000820151816000015560208201518160010160006101000a81548173ffffffffffffffffffffffffffffffffffffffff021916908373ffffffffffffffffffffffffffffffffffffffff16021790555060408201518160020155505060208201518160030160006101000a81548160ff02191690836004811115610c4857fe5b02179055505050505b5050565b60008054905090565b60036020528060005260406000206000915090505481565b600760009054906101000a900473ffffffffffffffffffffffffffffffffffffffff1673ffffffffffffffffffffffffffffffffffffffff163373ffffffffffffffffffffffffffffffffffffffff161480610d22575060011515600560003373ffffffffffffffffffffffffffffffffffffffff1673ffffffffffffffffffffffffffffffffffffffff16815260200190815260200160002060009054906101000a900460ff161515145b610d94576040517f08c379a000000000000000000000000000000000000000000000000000000000815260040180806020018281038252601f8152602001807f4f6e6c792062757965722063616e2063616c6c2074686973206d6574686f640081525060200191505060405180910390fd5b6060600460008473ffffffffffffffffffffffffffffffffffffffff1673ffffffffffffffffffffffffffffffffffffffff168152602001908152602001600020805480602002602001604051908101604052809291908181526020016000905b82821015610ed2578382906000526020600020906004020160405180604001604052908160008201604051806060016040529081600082015481526020016001820160009054906101000a900473ffffffffffffffffffffffffffffffffffffffff1673ffffffffffffffffffffffffffffffffffffffff1673ffffffffffffffffffffffffffffffffffffffff16815260200160028201548152505081526020016003820160009054906101000a900460ff166004811115610eb457fe5b6004811115610ebf57fe5b8152505081526020019060010190610df5565b50505050905060008090505b81518110156111505782828281518110610ef457fe5b6020026020010151600001516000015114156111435760006004811115610f1757fe5b828281518110610f2357fe5b6020026020010151602001516004811115610f3a57fe5b1415610f91576040517f08c379a0000000000000000000000000000000000000000000000000000000008152600401808060200182810382526047815260200180611db16047913960600191505060405180910390fd5b60036004811115610f9e57fe5b828281518110610faa57fe5b6020026020010151602001516004811115610fc157fe5b1415611035576040517f08c379a00000000000000000000000000000000000000000000000000000000081526004018080602001828103825260178152602001807f4f7264657220436f6d706c6574656420416c726561647900000000000000000081525060200191505060405180910390fd5b600482828151811061104357fe5b602002602001015160200190600481111561105a57fe5b9081600481111561106757fe5b81525050600360008573ffffffffffffffffffffffffffffffffffffffff1673ffffffffffffffffffffffffffffffffffffffff16815260200190815260200160002054600260008673ffffffffffffffffffffffffffffffffffffffff1673ffffffffffffffffffffffffffffffffffffffff1681526020019081526020016000206000828254019250508190555061114284600360008773ffffffffffffffffffffffffffffffffffffffff1673ffffffffffffffffffffffffffffffffffffffff1681526020019081526020016000205460006119dc565b5b8080600101915050610ede565b50505050565b600760009054906101000a900473ffffffffffffffffffffffffffffffffffffffff1673ffffffffffffffffffffffffffffffffffffffff163373ffffffffffffffffffffffffffffffffffffffff161480611202575060011515600560003373ffffffffffffffffffffffffffffffffffffffff1673ffffffffffffffffffffffffffffffffffffffff16815260200190815260200160002060009054906101000a900460ff161515145b611274576040517f08c379a000000000000000000000000000000000000000000000000000000000815260040180806020018281038252601f8152602001807f4f6e6c792062757965722063616e2063616c6c2074686973206d6574686f640081525060200191505060405180910390fd5b6060600460008473ffffffffffffffffffffffffffffffffffffffff1673ffffffffffffffffffffffffffffffffffffffff168152602001908152602001600020805480602002602001604051908101604052809291908181526020016000905b828210156113b2578382906000526020600020906004020160405180604001604052908160008201604051806060016040529081600082015481526020016001820160009054906101000a900473ffffffffffffffffffffffffffffffffffffffff1673ffffffffffffffffffffffffffffffffffffffff1673ffffffffffffffffffffffffffffffffffffffff16815260200160028201548152505081526020016003820160009054906101000a900460ff16600481111561139457fe5b600481111561139f57fe5b81525050815260200190600101906112d5565b50505050905060008090505b815181101561158057828282815181106113d457fe5b60200260200101516000015160000151141561157357600360048111156113f757fe5b82828151811061140357fe5b602002602001015160200151600481111561141a57fe5b1461150457600382828151811061142d57fe5b602002602001015160200190600481111561144457fe5b9081600481111561145157fe5b8152505081818151811061146157fe5b602002602001015160000151604001516002600084848151811061148157fe5b6020026020010151600001516020015173ffffffffffffffffffffffffffffffffffffffff1673ffffffffffffffffffffffffffffffffffffffff168152602001908152602001600020600082825401925050819055506114ff848383815181106114e857fe5b6020026020010151600001516040015160006119dc565b611572565b6040517f08c379a00000000000000000000000000000000000000000000000000000000081526004018080602001828103825260178152602001807f4f7264657220436f6d706c6574656420416c726561647900000000000000000081525060200191505060405180910390fd5b5b80806001019150506113be565b50505050565b600760009054906101000a900473ffffffffffffffffffffffffffffffffffffffff1673ffffffffffffffffffffffffffffffffffffffff163373ffffffffffffffffffffffffffffffffffffffff1614611649576040517f08c379a000000000000000000000000000000000000000000000000000000000815260040180806020018281038252601f8152602001807f4f6e6c792041646d696e2063616e2063616c6c2074686973206d6574686f640081525060200191505060405180910390fd5b6001600560008373ffffffffffffffffffffffffffffffffffffffff1673ffffffffffffffffffffffffffffffffffffffff16815260200190815260200160002060006101000a81548160ff02191690831515021790555050565b600760009054906101000a900473ffffffffffffffffffffffffffffffffffffffff1673ffffffffffffffffffffffffffffffffffffffff163373ffffffffffffffffffffffffffffffffffffffff1614611767576040517f08c379a000000000000000000000000000000000000000000000000000000000815260040180806020018281038252601f8152602001807f4f6e6c792041646d696e2063616e2063616c6c2074686973206d6574686f640081525060200191505060405180910390fd5b6001600660008373ffffffffffffffffffffffffffffffffffffffff1673ffffffffffffffffffffffffffffffffffffffff16815260200190815260200160002060006101000a81548160ff02191690831515021790555050565b600760009054906101000a900473ffffffffffffffffffffffffffffffffffffffff1673ffffffffffffffffffffffffffffffffffffffff163373ffffffffffffffffffffffffffffffffffffffff16148061186e575060011515600660003373ffffffffffffffffffffffffffffffffffffffff1673ffffffffffffffffffffffffffffffffffffffff16815260200190815260200160002060009054906101000a900460ff161515145b6118e0576040517f08c379a00000000000000000000000000000000000000000000000000000000081526004018080602001828103825260208152602001807f4f6e6c792073656c6c65722063616e2063616c6c2074686973206d6574686f6481525060200191505060405180910390fd5b6118e8611d76565b60405180606001604052808481526020018573ffffffffffffffffffffffffffffffffffffffff16815260200183815250905080600160008581526020019081526020016000206000820151816000015560208201518160010160006101000a81548173ffffffffffffffffffffffffffffffffffffffff021916908373ffffffffffffffffffffffffffffffffffffffff1602179055506040820151816002015590505050505050565b6000600260008373ffffffffffffffffffffffffffffffffffffffff1673ffffffffffffffffffffffffffffffffffffffff168152602001908152602001600020549050919050565b600060018111156119e957fe5b8160018111156119f557fe5b1415611b0e576000826000540312158015611a525750600082600360008673ffffffffffffffffffffffffffffffffffffffff1673ffffffffffffffffffffffffffffffffffffffff168152602001908152602001600020540312155b15611ab85781600360008573ffffffffffffffffffffffffffffffffffffffff1673ffffffffffffffffffffffffffffffffffffffff16815260200190815260200160002060008282540392505081905550816000808282540392505081905550611b09565b6040517f08c379a000000000000000000000000000000000000000000000000000000000815260040180806020018281038252602b815260200180611df8602b913960400191505060405180910390fd5b611b8a565b600180811115611b1a57fe5b816001811115611b2657fe5b1415611b895781600360008573ffffffffffffffffffffffffffffffffffffffff1673ffffffffffffffffffffffffffffffffffffffff168152602001908152602001600020600082825401925050819055508160008082825401925050819055505b5b505050565b6060600460008473ffffffffffffffffffffffffffffffffffffffff1673ffffffffffffffffffffffffffffffffffffffff168152602001908152602001600020805480602002602001604051908101604052809291908181526020016000905b82821015611ccd578382906000526020600020906004020160405180604001604052908160008201604051806060016040529081600082015481526020016001820160009054906101000a900473ffffffffffffffffffffffffffffffffffffffff1673ffffffffffffffffffffffffffffffffffffffff1673ffffffffffffffffffffffffffffffffffffffff16815260200160028201548152505081526020016003820160009054906101000a900460ff166004811115611caf57fe5b6004811115611cba57fe5b8152505081526020019060010190611bf0565b50505050905060008090505b8151811015611d705760016004811115611cef57fe5b836004811115611cfb57fe5b1415611d6357611d0a84611993565b828281518110611d1657fe5b6020026020010151600001516040015113611d62576001828281518110611d3957fe5b6020026020010151602001906004811115611d5057fe5b90816004811115611d5d57fe5b815250505b5b8080600101915050611cd9565b50505050565b604051806060016040528060008019168152602001600073ffffffffffffffffffffffffffffffffffffffff16815260200160008152509056fe5061796d656e74206e6f742079657420646f6e6520666f7220746865206974656d206f7220496e73756666696369656e7420616d6f756e7420746f20706c616365204f72646572496e73756666696369656e7420416d6f756e7420696e2074686520657363726f7720746f20646564756374496e73756666696369656e742042616c616e636520666f7220746865204275796572a265627a7a723158205b482f31d4dc886433c15a75ec5999df5a3d7a104ef2d6ef9fa1b716dcd44c3664736f6c63430005100032",
  "source": "pragma solidity >=0.4.25 <0.7.5;\r\n\r\ncontract Escrow {\r\n    struct Item {\r\n        bytes32 name;\r\n        address seller;\r\n        int256 rate;\r\n    }\r\n    struct Order {\r\n        Item item;\r\n        Status status;\r\n    }\r\n\r\n    int256 escrowTotal;\r\n    mapping(bytes32 => Item) inventory;\r\n    mapping(address => int256) balances;\r\n    mapping(address => int256) public escrowBalances;\r\n    mapping(address => Order[]) orders;\r\n    mapping(address => bool) buyers;\r\n    mapping(address => bool) sellers;\r\n    address admn;\r\n    enum Status {\r\n        PAYMENT_PENDING,\r\n        ORDER_PROCESSING,\r\n        PAYMENT_PAID,\r\n        ORDER_COMPLETE,\r\n        ORDER_CANCELLED\r\n    }\r\n    enum Action {DEDUCT, CREDIT}\r\n\r\n    // constructor() public {}\r\n \r\n\r\n    constructor() public{ \r\n        admn = msg.sender;\r\n    }\r\n\r\n     modifier onlyBuyer() {\r\n        require(msg.sender == admn || buyers[msg.sender]==true, \"Only buyer can call this method\");\r\n        _;\r\n    }\r\n\r\n    modifier onlySeller() {\r\n        require(msg.sender == admn || sellers[msg.sender]==true, \"Only seller can call this method\");\r\n        _;\r\n    }\r\n\r\n    modifier onlyAdmin() {\r\n        require(msg.sender == admn, \"Only Admin can call this method\");\r\n        _;\r\n    }\r\n\r\n    function addBuyer(address buyer)  onlyAdmin external{\r\n        buyers[buyer] = true;\r\n    }\r\n    \r\n    function addSeller(address seller)  onlyAdmin external{\r\n        sellers[seller] = true;\r\n    }\r\n\r\n    function credit(address buyer, int256 amount)  onlyBuyer external{\r\n        balances[buyer] += amount;\r\n    }\r\n\r\n    function getBalance(address buyer) public view returns (int256 amount) {\r\n        return balances[buyer];\r\n    }\r\n\r\n    function offer(\r\n        address seller,\r\n        bytes32 item,\r\n        int256 amount\r\n    ) onlySeller external {\r\n        Item memory stock = Item(item, seller, amount);\r\n        inventory[item] = stock;\r\n    }\r\n\r\n    function order(address buyer, bytes32 item) onlyBuyer external {\r\n        if (escrowBalances[buyer] >= inventory[item].rate) {\r\n            orders[buyer].push(Order(inventory[item], Status.ORDER_PROCESSING));\r\n            //setEscrowBalance(buyer,inventory[item].rate,Action.DEDUCT);\r\n            //escrowBalances[buyer] -= inventory[item].rate;\r\n        } else {\r\n            orders[buyer].push(Order(inventory[item], Status.PAYMENT_PENDING));\r\n        }\r\n    }\r\n\r\n    function deposit(address buyer, int256 amount) onlyBuyer external {\r\n        if (balances[buyer] > 0 && getBalance(buyer) >= amount) {\r\n            balances[buyer] -= amount;\r\n            setEscrowBalance(buyer, amount, Action.CREDIT);\r\n            processOrder(buyer, Status.ORDER_PROCESSING);\r\n        } else {\r\n            revert(\"Insufficient Balance for the Buyer\");\r\n        }\r\n    }\r\n\r\n    function processOrder(address buyer, Status status) private{\r\n        Order[] memory orderList = orders[buyer];\r\n        for (uint256 i = 0; i < orderList.length; i++) {\r\n            if (status == Status.ORDER_PROCESSING) {\r\n                if (orderList[i].item.rate <= getBalance(buyer)) {\r\n                    orderList[i].status = Status.ORDER_PROCESSING;\r\n                }\r\n            }\r\n        }\r\n    }\r\n\r\n    function complete(address buyer, bytes32 item) onlyBuyer external {\r\n        // change order status to Complete\r\n        Order[] memory orderList = orders[buyer];\r\n        for (uint256 i = 0; i < orderList.length; i++) {\r\n            if (orderList[i].item.name == item) {\r\n                if (orderList[i].status != Status.ORDER_COMPLETE) {\r\n                    orderList[i].status = Status.ORDER_COMPLETE;\r\n                    balances[orderList[i].item.seller] += orderList[i]\r\n                        .item\r\n                        .rate;\r\n                    setEscrowBalance(\r\n                        buyer,\r\n                        orderList[i].item.rate,\r\n                        Action.DEDUCT\r\n                    );\r\n                } else {\r\n                    revert(\"Order Completed Already\");\r\n                }\r\n            }\r\n        }\r\n    }\r\n\r\n    function complain(address buyer, bytes32 item) onlyBuyer external {\r\n        Order[] memory orderList = orders[buyer];\r\n        for (uint256 i = 0; i < orderList.length; i++) {\r\n            if (orderList[i].item.name == item) {\r\n                if (orderList[i].status == Status.PAYMENT_PENDING) {\r\n                    revert(\r\n                        \"Payment not yet done for the item or Insufficient amount to place Order\"\r\n                    );\r\n                } else if (orderList[i].status == Status.ORDER_COMPLETE) {\r\n                    revert(\"Order Completed Already\");\r\n                } else {\r\n                    orderList[i].status = Status.ORDER_CANCELLED;\r\n                    balances[buyer] += escrowBalances[buyer];\r\n                    setEscrowBalance(\r\n                        buyer,\r\n                        escrowBalances[buyer],\r\n                        Action.DEDUCT\r\n                    );\r\n                }\r\n            }\r\n        }\r\n    }\r\n\r\n    function setEscrowBalance(\r\n        address party,\r\n        int256 amount,\r\n        Action action\r\n    ) private {\r\n        if (action == Action.DEDUCT) {\r\n            if (\r\n                escrowTotal - amount >= 0 && escrowBalances[party] - amount >= 0\r\n            ) {\r\n                escrowBalances[party] -= amount;\r\n                escrowTotal -= amount;\r\n            } else {\r\n                revert(\"Insufficient Amount in the escrow to deduct\");\r\n            }\r\n        } else if (action == Action.CREDIT) {\r\n            escrowBalances[party] += amount;\r\n            escrowTotal += amount;\r\n        }\r\n    }\r\n\r\n    function getEscrowBalanceTotal() public returns (int256 amount) {\r\n        return escrowTotal;\r\n    }\r\n}\r\n",
  "sourcePath": "D:/escrow/contracts/Escrow.sol",
  "compiler": {
    "name": "solc",
    "version": "0.5.16+commit.9c3226ce.Emscripten.clang"
  },
  "schemaVersion": "3.3.3",
  "updatedAt": "2021-01-13T20:00:03.816Z",
  "networkType": "ethereum",
  "devdoc": {
    "methods": {}
  },
  "userdoc": {
    "methods": {}
  }
}